{
    "contractName": "NFTStaking",
    "abi": [
        {
            "inputs": [
                {
                    "internalType": "uint256",
                    "name": "_lockingPeriodInDays",
                    "type": "uint256"
                }
            ],
            "stateMutability": "nonpayable",
            "type": "constructor"
        },
        {
            "anonymous": false,
            "inputs": [
                {
                    "indexed": false,
                    "internalType": "address",
                    "name": "staker",
                    "type": "address"
                },
                {
                    "indexed": false,
                    "internalType": "contract DefiMinerNFT",
                    "name": "_nft",
                    "type": "address"
                },
                {
                    "indexed": false,
                    "internalType": "uint256",
                    "name": "_tokenID",
                    "type": "uint256"
                }
            ],
            "name": "NFTStaked",
            "type": "event"
        },
        {
            "anonymous": false,
            "inputs": [
                {
                    "indexed": false,
                    "internalType": "address",
                    "name": "staker",
                    "type": "address"
                },
                {
                    "indexed": false,
                    "internalType": "contract DefiMinerNFT",
                    "name": "_nft",
                    "type": "address"
                },
                {
                    "indexed": false,
                    "internalType": "uint256",
                    "name": "_tokenID",
                    "type": "uint256"
                }
            ],
            "name": "NFTUnstaked",
            "type": "event"
        },
        {
            "anonymous": false,
            "inputs": [
                {
                    "indexed": true,
                    "internalType": "address",
                    "name": "previousOwner",
                    "type": "address"
                },
                {
                    "indexed": true,
                    "internalType": "address",
                    "name": "newOwner",
                    "type": "address"
                }
            ],
            "name": "OwnershipTransferred",
            "type": "event"
        },
        {
            "inputs": [
                {
                    "internalType": "contract Subscriber",
                    "name": "sub",
                    "type": "address"
                }
            ],
            "name": "addSubscriber",
            "outputs": [],
            "stateMutability": "nonpayable",
            "type": "function"
        },
        {
            "inputs": [
                {
                    "internalType": "uint256",
                    "name": "_lockingPeriod",
                    "type": "uint256"
                }
            ],
            "name": "changeLockingPeriod",
            "outputs": [],
            "stateMutability": "nonpayable",
            "type": "function"
        },
        {
            "inputs": [],
            "name": "getLockingPeriod",
            "outputs": [
                {
                    "internalType": "uint256",
                    "name": "",
                    "type": "uint256"
                }
            ],
            "stateMutability": "view",
            "type": "function"
        },
        {
            "inputs": [
                {
                    "internalType": "contract DefiMinerNFT",
                    "name": "_nft",
                    "type": "address"
                }
            ],
            "name": "getStakedAmount",
            "outputs": [
                {
                    "internalType": "uint256",
                    "name": "",
                    "type": "uint256"
                }
            ],
            "stateMutability": "view",
            "type": "function"
        },
        {
            "inputs": [
                {
                    "internalType": "contract DefiMinerNFT",
                    "name": "_nft",
                    "type": "address"
                },
                {
                    "internalType": "uint256",
                    "name": "_tokenID",
                    "type": "uint256"
                }
            ],
            "name": "getStakingInfo",
            "outputs": [
                {
                    "components": [
                        {
                            "components": [
                                {
                                    "internalType": "uint256",
                                    "name": "startStake",
                                    "type": "uint256"
                                },
                                {
                                    "internalType": "uint256",
                                    "name": "blockedUntil",
                                    "type": "uint256"
                                },
                                {
                                    "internalType": "uint256",
                                    "name": "unstake",
                                    "type": "uint256"
                                }
                            ],
                            "internalType": "struct StakingLibrary.StakingPeriod[]",
                            "name": "stakingPeriods",
                            "type": "tuple[]"
                        },
                        {
                            "internalType": "uint256",
                            "name": "tokenID",
                            "type": "uint256"
                        },
                        {
                            "internalType": "bool",
                            "name": "exist",
                            "type": "bool"
                        }
                    ],
                    "internalType": "struct StakingLibrary.NFTStakingInfo",
                    "name": "stakingInfo",
                    "type": "tuple"
                }
            ],
            "stateMutability": "view",
            "type": "function"
        },
        {
            "inputs": [],
            "name": "getWhitelist",
            "outputs": [
                {
                    "internalType": "contract Whitelist",
                    "name": "",
                    "type": "address"
                }
            ],
            "stateMutability": "view",
            "type": "function"
        },
        {
            "inputs": [],
            "name": "owner",
            "outputs": [
                {
                    "internalType": "address",
                    "name": "",
                    "type": "address"
                }
            ],
            "stateMutability": "view",
            "type": "function"
        },
        {
            "inputs": [
                {
                    "internalType": "contract Subscriber",
                    "name": "sub",
                    "type": "address"
                }
            ],
            "name": "removeSubscriber",
            "outputs": [],
            "stateMutability": "nonpayable",
            "type": "function"
        },
        {
            "inputs": [],
            "name": "renounceOwnership",
            "outputs": [],
            "stateMutability": "nonpayable",
            "type": "function"
        },
        {
            "inputs": [
                {
                    "internalType": "contract DefiMinerNFT",
                    "name": "_nft",
                    "type": "address"
                },
                {
                    "internalType": "uint256",
                    "name": "_tokenID",
                    "type": "uint256"
                }
            ],
            "name": "stakeNFT",
            "outputs": [],
            "stateMutability": "nonpayable",
            "type": "function"
        },
        {
            "inputs": [
                {
                    "internalType": "address",
                    "name": "newOwner",
                    "type": "address"
                }
            ],
            "name": "transferOwnership",
            "outputs": [],
            "stateMutability": "nonpayable",
            "type": "function"
        },
        {
            "inputs": [
                {
                    "internalType": "contract DefiMinerNFT",
                    "name": "_nft",
                    "type": "address"
                },
                {
                    "internalType": "uint256",
                    "name": "_tokenID",
                    "type": "uint256"
                }
            ],
            "name": "unstakeNFT",
            "outputs": [],
            "stateMutability": "nonpayable",
            "type": "function"
        }
    ],
    "bytecode": "6080604052600e6003553480156200001657600080fd5b5060405162001caf38038062001caf83398101604081905262000039916200016c565b62000044336200010e565b600381905560405162000057906200015e565b604051809103906000f08015801562000074573d6000803e3d6000fd5b50600480546001600160a01b0319166001600160a01b0392831617908190551663f2fde38b620000ac6000546001600160a01b031690565b6040516001600160e01b031960e084901b1681526001600160a01b039091166004820152602401600060405180830381600087803b158015620000ee57600080fd5b505af115801562000103573d6000803e3d6000fd5b505050505062000185565b600080546001600160a01b038381166001600160a01b0319831681178455604051919092169283917f8be0079c531659141344cd1fd0a4f28419497f9722a3daafe3b4186f6b6457e09190a35050565b6105aa806200170583390190565b6000602082840312156200017e578081fd5b5051919050565b61157080620001956000396000f3fe608060405234801561001057600080fd5b50600436106100b45760003560e01c806394555d1a1161007157806394555d1a1461015b5780639c1c97d71461016e578063b13270d514610181578063d01f63f514610194578063d7ca7cc5146101a5578063f2fde38b146101b8576100b4565b8063402fbbd8146100b95780634da6a556146100d05780636053854d146100f9578063627c34ad14610119578063715018a61461012e5780638da5cb5b14610136575b600080fd5b6003545b6040519081526020015b60405180910390f35b6100bd6100de366004611247565b6001600160a01b031660009081526005602052604090205490565b61010c6101073660046112a6565b6101cb565b6040516100c79190611422565b61012c610127366004611247565b61035b565b005b61012c6104d3565b6000546001600160a01b03165b6040516001600160a01b0390911681526020016100c7565b61012c610169366004611247565b610509565b61012c61017c3660046112a6565b610610565b61012c61018f3660046112a6565b610b83565b6004546001600160a01b0316610143565b61012c6101b33660046112d1565b611032565b61012c6101c6366004611247565b6110c5565b6101f1604051806060016040528060608152602001600081526020016000151581525090565b600480546040516330ccebb560e01b81526001600160a01b03868116938201939093529116906330ccebb59060240160206040518083038186803b15801561023857600080fd5b505afa15801561024c573d6000803e3d6000fd5b505050506040513d601f19601f820116820180604052508101906102709190611286565b151560011461029a5760405162461bcd60e51b815260040161029190611301565b60405180910390fd5b6001600160a01b038316600090815260066020908152604080832085845282528083208151815460809481028201850190935260608101838152909491938593919285929185015b8282101561033257838290600052602060002090600302016040518060600160405290816000820154815260200160018201548152602001600282015481525050815260200190600101906102e2565b505050908252506001820154602082015260029091015460ff1615156040909101529392505050565b6000546001600160a01b031633146103855760405162461bcd60e51b8152600401610291906113ed565b6001600160a01b03811660009081526002602052604090205460ff1615156001146104115760405162461bcd60e51b815260206004820152603660248201527f5374616b696e6753756273637269626572206d7573742062652073756273637260448201527534b132b91037b3103a3434b99031b7b73a3930b1ba1760511b6064820152608401610291565b60005b6001548110156104b157816001600160a01b03166001828154811061044957634e487b7160e01b600052603260045260246000fd5b6000918252602090912001546001600160a01b0316141561049f576001818154811061048557634e487b7160e01b600052603260045260246000fd5b600091825260209091200180546001600160a01b03191690555b806104a9816114f4565b915050610414565b506001600160a01b03166000908152600260205260409020805460ff19169055565b6000546001600160a01b031633146104fd5760405162461bcd60e51b8152600401610291906113ed565b610507600061115c565b565b6000546001600160a01b031633146105335760405162461bcd60e51b8152600401610291906113ed565b6001600160a01b03811660009081526002602052604090205460ff16156105ac5760405162461bcd60e51b815260206004820152602760248201527f5374616b696e67537562736372696265722063616e27742073756273637269626044820152666520747769636560c81b6064820152608401610291565b6001805480820182557fb10e2d527612073b26eecdfd717e6a320cf44b4afac2b0732d9fcbe2b7fa0cf60180546001600160a01b039093166001600160a01b031990931683179055600091825260026020526040909120805460ff19169091179055565b600480546040516330ccebb560e01b81526001600160a01b03858116938201939093529116906330ccebb59060240160206040518083038186803b15801561065757600080fd5b505afa15801561066b573d6000803e3d6000fd5b505050506040513d601f19601f8201168201806040525081019061068f9190611286565b15156001146106f25760405162461bcd60e51b815260206004820152602960248201527f54686973204e4654206973206e6f7420616e206f726967696e616c204d696e65604482015268392137bc1027232a1760b91b6064820152608401610291565b6040516370a0823160e01b81523360048201526000906001600160a01b038416906370a082319060240160206040518083038186803b15801561073457600080fd5b505afa158015610748573d6000803e3d6000fd5b505050506040513d601f19601f8201168201806040525081019061076c91906112e9565b116107895760405162461bcd60e51b8152600401610291906113a3565b6040516331a9108f60e11b81526004810182905233906001600160a01b03841690636352211e9060240160206040518083038186803b1580156107cb57600080fd5b505afa1580156107df573d6000803e3d6000fd5b505050506040513d601f19601f82011682018060405250810190610803919061126a565b6001600160a01b0316146108295760405162461bcd60e51b815260040161029190611350565b6001600160a01b03821660009081526006602090815260408083208484529091529020600281015460ff1615156001146108a55760405162461bcd60e51b815260206004820152601860248201527f4e4654533a204e4654206973206e6f74207374616b65642e00000000000000006044820152606401610291565b805481906108f55760405162461bcd60e51b815260206004820181905260248201527f4e4654533a2054686973204e465420776173206e65766572207374616b65642e6044820152606401610291565b80546000908290610908906001906114dd565b8154811061092657634e487b7160e01b600052603260045260246000fd5b9060005260206000209060030201905080600201546000146109995760405162461bcd60e51b815260206004820152602660248201527f4e4654533a20546865204e4654206973206e6f74207374616b656420726967686044820152653a103737bb9760d11b6064820152608401610291565b80600101544210156109ed5760405162461bcd60e51b815260206004820152601e60248201527f4e4654533a2054686973204e4654206973207374696c6c206c6f636b656400006044820152606401610291565b60005b600154811015610aa357600060018281548110610a1d57634e487b7160e01b600052603260045260246000fd5b60009182526020909120015460405163095d122f60e01b81526001600160a01b038981166004830152602482018990529091169150819063095d122f90604401600060405180830381600087803b158015610a7757600080fd5b505af1158015610a8b573d6000803e3d6000fd5b50505050508080610a9b906114f4565b9150506109f0565b50426002820155604051632514116b60e21b8152600481018590526001600160a01b0386169063945045ac90602401600060405180830381600087803b158015610aec57600080fd5b505af1158015610b00573d6000803e3d6000fd5b505050506001600160a01b0385166000908152600560205260408120805460019290610b2d9084906114dd565b9091555050604080513381526001600160a01b03871660208201529081018590527f9bd9cb7e764c8d8e46d2cc48be5ca3db19d9948f5c4129ee1f025916fff721d9906060015b60405180910390a15050505050565b600480546040516330ccebb560e01b81526001600160a01b03858116938201939093529116906330ccebb59060240160206040518083038186803b158015610bca57600080fd5b505afa158015610bde573d6000803e3d6000fd5b505050506040513d601f19601f82011682018060405250810190610c029190611286565b1515600114610c235760405162461bcd60e51b815260040161029190611301565b6040516370a0823160e01b81523360048201526000906001600160a01b038416906370a082319060240160206040518083038186803b158015610c6557600080fd5b505afa158015610c79573d6000803e3d6000fd5b505050506040513d601f19601f82011682018060405250810190610c9d91906112e9565b11610cba5760405162461bcd60e51b8152600401610291906113a3565b6040516331a9108f60e11b81526004810182905233906001600160a01b03841690636352211e9060240160206040518083038186803b158015610cfc57600080fd5b505afa158015610d10573d6000803e3d6000fd5b505050506040513d601f19601f82011682018060405250810190610d34919061126a565b6001600160a01b031614610d5a5760405162461bcd60e51b815260040161029190611350565b6001600160a01b0382166000908152600660209081526040808320848452909152902060028101805460ff191660019081179091558101829055805415610e3c5780546000908290610dae906001906114dd565b81548110610dcc57634e487b7160e01b600052603260045260246000fd5b906000526020600020906003020190506000816002015411610e3a5760405162461bcd60e51b815260206004820152602160248201527f4e4654533a20596f7572204e465420697320616c7265616479207374616b65646044820152601760f91b6064820152608401610291565b505b6003544290600090610e5090610e106114be565b610e5b9060186114be565b610e6590836114a6565b60405163557f8cfd60e11b8152600481018690529091506001600160a01b0386169063aaff19fa90602401600060405180830381600087803b158015610eaa57600080fd5b505af1158015610ebe573d6000803e3d6000fd5b5050505060005b600154811015610f7857600060018281548110610ef257634e487b7160e01b600052603260045260246000fd5b6000918252602090912001546040516323021ec760e21b81526001600160a01b0389811660048301526024820189905290911691508190638c087b1c90604401600060405180830381600087803b158015610f4c57600080fd5b505af1158015610f60573d6000803e3d6000fd5b50505050508080610f70906114f4565b915050610ec5565b506040805160608101825283815260208082018481526000838501818152885460018181018b558a845285842096516003909202909601908155925183860155516002909201919091556001600160a01b03891681526005909152918220805491929091610fe79084906114a6565b9091555050604080513381526001600160a01b03871660208201529081018590527f45a0b747ada8575b65125b2144e0de1ff692ff4510bb94a2f9695fcaf1d2bdf390606001610b74565b6000546001600160a01b0316331461105c5760405162461bcd60e51b8152600401610291906113ed565b600081116110c05760405162461bcd60e51b815260206004820152602b60248201527f4e4654533a204c6f636b696e67506572696f64206d757374206265206174206c60448201526a32b0b9ba1018903230bc9760a91b6064820152608401610291565b600355565b6000546001600160a01b031633146110ef5760405162461bcd60e51b8152600401610291906113ed565b6110f8816111ac565b6004805460405163f2fde38b60e01b81526001600160a01b038481169382019390935291169063f2fde38b90602401600060405180830381600087803b15801561114157600080fd5b505af1158015611155573d6000803e3d6000fd5b5050505050565b600080546001600160a01b038381166001600160a01b0319831681178455604051919092169283917f8be0079c531659141344cd1fd0a4f28419497f9722a3daafe3b4186f6b6457e09190a35050565b6000546001600160a01b031633146111d65760405162461bcd60e51b8152600401610291906113ed565b6001600160a01b03811661123b5760405162461bcd60e51b815260206004820152602660248201527f4f776e61626c653a206e6577206f776e657220697320746865207a65726f206160448201526564647265737360d01b6064820152608401610291565b6112448161115c565b50565b600060208284031215611258578081fd5b813561126381611525565b9392505050565b60006020828403121561127b578081fd5b815161126381611525565b600060208284031215611297578081fd5b81518015158114611263578182fd5b600080604083850312156112b8578081fd5b82356112c381611525565b946020939093013593505050565b6000602082840312156112e2578081fd5b5035919050565b6000602082840312156112fa578081fd5b5051919050565b6020808252602f908201527f4e4654533a2054686973204e4654206973206e6f7420616e206f726967696e6160408201526e361026b4b732b92137bc1027232a1760891b606082015260800190565b60208082526033908201527f4e4654533a20596f7520617265206e6f7420746865206f776e6572206f6620746040820152723434b9903830b93a34b1bab630b91027232a1760691b606082015260800190565b6020808252602a908201527f4e4654533a20596f7520646f6e2774206f776e20616e79204e465473206f66206040820152693a3434b99035b4b7321760b11b606082015260800190565b6020808252818101527f4f776e61626c653a2063616c6c6572206973206e6f7420746865206f776e6572604082015260600190565b60208082528251606083830181905281516080850181905260009392830191849160a08701905b8084101561147d57845180518352868101518784015260409081015190830152938501936001939093019290820190611449565b508488015160408801526040880151945061149b8288018615159052565b979650505050505050565b600082198211156114b9576114b961150f565b500190565b60008160001904831182151516156114d8576114d861150f565b500290565b6000828210156114ef576114ef61150f565b500390565b60006000198214156115085761150861150f565b5060010190565b634e487b7160e01b600052601160045260246000fd5b6001600160a01b038116811461124457600080fdfea264697066735822122035b98c09e53b6a0f0cf5feda055e1fd7f167897c9d10322d1510a7884ce898f464736f6c63430008020033608060405234801561001057600080fd5b5061001a3361001f565b61006f565b600080546001600160a01b038381166001600160a01b0319831681178455604051919092169283917f8be0079c531659141344cd1fd0a4f28419497f9722a3daafe3b4186f6b6457e09190a35050565b61052c8061007e6000396000f3fe608060405234801561001057600080fd5b50600436106100625760003560e01c8063217cf1a61461006757806330ccebb51461007c578063715018a6146100a45780638da5cb5b146100ac578063b304f21c146100c7578063f2fde38b146100da575b600080fd5b61007a6100753660046103ac565b6100ed565b005b61008f61008a366004610359565b61019a565b60405190151581526020015b60405180910390f35b61007a6101bc565b6000546040516001600160a01b03909116815260200161009b565b61007a6100d536600461037a565b6101f2565b61007a6100e8366004610359565b610247565b6000546001600160a01b031633146101205760405162461bcd60e51b815260040161011790610484565b60405180910390fd5b60005b825181101561019557816001600085848151811061015157634e487b7160e01b600052603260045260246000fd5b6020908102919091018101516001600160a01b03168252810191909152604001600020805460ff19169115159190911790558061018d816104b9565b915050610123565b505050565b6001600160a01b03811660009081526001602052604090205460ff165b919050565b6000546001600160a01b031633146101e65760405162461bcd60e51b815260040161011790610484565b6101f060006102e2565b565b6000546001600160a01b0316331461021c5760405162461bcd60e51b815260040161011790610484565b6001600160a01b03919091166000908152600160205260409020805460ff1916911515919091179055565b6000546001600160a01b031633146102715760405162461bcd60e51b815260040161011790610484565b6001600160a01b0381166102d65760405162461bcd60e51b815260206004820152602660248201527f4f776e61626c653a206e6577206f776e657220697320746865207a65726f206160448201526564647265737360d01b6064820152608401610117565b6102df816102e2565b50565b600080546001600160a01b038381166001600160a01b0319831681178455604051919092169283917f8be0079c531659141344cd1fd0a4f28419497f9722a3daafe3b4186f6b6457e09190a35050565b80356001600160a01b03811681146101b757600080fd5b803580151581146101b757600080fd5b60006020828403121561036a578081fd5b61037382610332565b9392505050565b6000806040838503121561038c578081fd5b61039583610332565b91506103a360208401610349565b90509250929050565b600080604083850312156103be578182fd5b823567ffffffffffffffff808211156103d5578384fd5b818501915085601f8301126103e8578384fd5b81356020828211156103fc576103fc6104e0565b808202604051601f19603f83011681018181108682111715610420576104206104e0565b604052838152828101945085830182870184018b101561043e578889fd5b8896505b848710156104675761045381610332565b865260019690960195948301948301610442565b5096506104779050878201610349565b9450505050509250929050565b6020808252818101527f4f776e61626c653a2063616c6c6572206973206e6f7420746865206f776e6572604082015260600190565b60006000198214156104d957634e487b7160e01b81526011600452602481fd5b5060010190565b634e487b7160e01b600052604160045260246000fdfea264697066735822122044610c122b197df01a7e9066dde9a57745b027cc9c03b35961c90cf86983ffe864736f6c63430008020033",
    "sourcePath": "/home/lukas/Solidity/DefiMinersClub/contracts/nft/staking/NFTStaking.sol",
    "compiler": {
        "name": "solc",
        "version": "0.8.2+commit.661d1103"
    },
    "functionHashes": {
        "addSubscriber(address)": "94555d1a",
        "changeLockingPeriod(uint256)": "d7ca7cc5",
        "getLockingPeriod()": "402fbbd8",
        "getStakedAmount(address)": "4da6a556",
        "getStakingInfo(address,uint256)": "6053854d",
        "getWhitelist()": "d01f63f5",
        "owner()": "8da5cb5b",
        "removeSubscriber(address)": "627c34ad",
        "renounceOwnership()": "715018a6",
        "stakeNFT(address,uint256)": "b13270d5",
        "transferOwnership(address)": "f2fde38b",
        "unstakeNFT(address,uint256)": "9c1c97d7"
    },
    "gasEstimates": {
        "creation": {
            "codeDepositCost": "1097600",
            "executionCost": "infinite",
            "totalCost": "infinite"
        },
        "external": {
            "addSubscriber(address)": "64632",
            "changeLockingPeriod(uint256)": "21175",
            "getLockingPeriod()": "971",
            "getStakedAmount(address)": "1243",
            "getStakingInfo(address,uint256)": "infinite",
            "getWhitelist()": "1097",
            "owner()": "1131",
            "removeSubscriber(address)": "infinite",
            "renounceOwnership()": "23503",
            "stakeNFT(address,uint256)": "infinite",
            "transferOwnership(address)": "infinite",
            "unstakeNFT(address,uint256)": "infinite"
        }
    }
}