{
    "contractName": "NFTShop",
    "abi": [
        {
            "inputs": [],
            "stateMutability": "nonpayable",
            "type": "constructor"
        },
        {
            "anonymous": false,
            "inputs": [
                {
                    "indexed": false,
                    "internalType": "contract DefiMinerNFT",
                    "name": "_nft",
                    "type": "address"
                },
                {
                    "indexed": false,
                    "internalType": "contract ERC20",
                    "name": "_priceToken",
                    "type": "address"
                },
                {
                    "indexed": false,
                    "internalType": "uint256",
                    "name": "_pricePerNFT",
                    "type": "uint256"
                },
                {
                    "indexed": false,
                    "internalType": "uint256",
                    "name": "_maxSellAmount",
                    "type": "uint256"
                },
                {
                    "indexed": false,
                    "internalType": "uint256",
                    "name": "_alreadySold",
                    "type": "uint256"
                },
                {
                    "indexed": false,
                    "internalType": "address",
                    "name": "_treasuryAddress",
                    "type": "address"
                },
                {
                    "indexed": false,
                    "internalType": "string",
                    "name": "_description",
                    "type": "string"
                }
            ],
            "name": "NFTBatchCreated",
            "type": "event"
        },
        {
            "anonymous": false,
            "inputs": [
                {
                    "indexed": false,
                    "internalType": "address",
                    "name": "buyer",
                    "type": "address"
                },
                {
                    "indexed": false,
                    "internalType": "contract DefiMinerNFT",
                    "name": "_nft",
                    "type": "address"
                },
                {
                    "indexed": false,
                    "internalType": "contract ERC20",
                    "name": "_priceToken",
                    "type": "address"
                },
                {
                    "indexed": false,
                    "internalType": "uint256",
                    "name": "_price",
                    "type": "uint256"
                },
                {
                    "indexed": false,
                    "internalType": "address",
                    "name": "treasuryAddress",
                    "type": "address"
                }
            ],
            "name": "NFTMint",
            "type": "event"
        },
        {
            "anonymous": false,
            "inputs": [
                {
                    "indexed": true,
                    "internalType": "address",
                    "name": "previousOwner",
                    "type": "address"
                },
                {
                    "indexed": true,
                    "internalType": "address",
                    "name": "newOwner",
                    "type": "address"
                }
            ],
            "name": "OwnershipTransferred",
            "type": "event"
        },
        {
            "inputs": [
                {
                    "internalType": "contract DefiMinerNFT",
                    "name": "_nft",
                    "type": "address"
                },
                {
                    "internalType": "contract ERC20",
                    "name": "_priceToken",
                    "type": "address"
                },
                {
                    "internalType": "uint256",
                    "name": "_pricePerNFT",
                    "type": "uint256"
                },
                {
                    "internalType": "uint256",
                    "name": "_maxSellAmount",
                    "type": "uint256"
                },
                {
                    "internalType": "uint256",
                    "name": "_alreadySold",
                    "type": "uint256"
                },
                {
                    "internalType": "address",
                    "name": "_treasuryAddress",
                    "type": "address"
                },
                {
                    "internalType": "string",
                    "name": "_description",
                    "type": "string"
                }
            ],
            "name": "createNFTBatch",
            "outputs": [],
            "stateMutability": "nonpayable",
            "type": "function"
        },
        {
            "inputs": [
                {
                    "internalType": "contract DefiMinerNFT",
                    "name": "_nft",
                    "type": "address"
                },
                {
                    "internalType": "contract ERC20",
                    "name": "_priceToken",
                    "type": "address"
                },
                {
                    "internalType": "uint256",
                    "name": "_pricePerNFT",
                    "type": "uint256"
                },
                {
                    "internalType": "uint256",
                    "name": "_maxSellAmount",
                    "type": "uint256"
                },
                {
                    "internalType": "uint256",
                    "name": "_alreadySold",
                    "type": "uint256"
                },
                {
                    "internalType": "address",
                    "name": "_treasuryAddress",
                    "type": "address"
                },
                {
                    "internalType": "string",
                    "name": "_description",
                    "type": "string"
                },
                {
                    "internalType": "contract Whitelist",
                    "name": "_whitelist",
                    "type": "address"
                }
            ],
            "name": "createWhitelistedNFTBatch",
            "outputs": [],
            "stateMutability": "nonpayable",
            "type": "function"
        },
        {
            "inputs": [
                {
                    "internalType": "contract DefiMinerNFT",
                    "name": "_nft",
                    "type": "address"
                }
            ],
            "name": "deleteBatch",
            "outputs": [],
            "stateMutability": "nonpayable",
            "type": "function"
        },
        {
            "inputs": [
                {
                    "internalType": "contract DefiMinerNFT",
                    "name": "_nft",
                    "type": "address"
                }
            ],
            "name": "getBatch",
            "outputs": [
                {
                    "components": [
                        {
                            "internalType": "uint256",
                            "name": "creationTimestamp",
                            "type": "uint256"
                        },
                        {
                            "internalType": "contract DefiMinerNFT",
                            "name": "nft",
                            "type": "address"
                        },
                        {
                            "internalType": "contract ERC20",
                            "name": "priceToken",
                            "type": "address"
                        },
                        {
                            "internalType": "uint256",
                            "name": "pricePerNFT",
                            "type": "uint256"
                        },
                        {
                            "internalType": "uint256",
                            "name": "maxSellAmount",
                            "type": "uint256"
                        },
                        {
                            "internalType": "uint256",
                            "name": "alreadySold",
                            "type": "uint256"
                        },
                        {
                            "internalType": "address",
                            "name": "treasuryAddress",
                            "type": "address"
                        },
                        {
                            "internalType": "string",
                            "name": "description",
                            "type": "string"
                        },
                        {
                            "internalType": "bool",
                            "name": "exist",
                            "type": "bool"
                        },
                        {
                            "internalType": "contract Whitelist",
                            "name": "whitelist",
                            "type": "address"
                        },
                        {
                            "internalType": "bool",
                            "name": "usesWhitelist",
                            "type": "bool"
                        }
                    ],
                    "internalType": "struct NFTShop.NFT_Batch",
                    "name": "nftBatch",
                    "type": "tuple"
                },
                {
                    "internalType": "string",
                    "name": "priceName",
                    "type": "string"
                },
                {
                    "internalType": "string",
                    "name": "priceSymbol",
                    "type": "string"
                },
                {
                    "internalType": "string",
                    "name": "nftName",
                    "type": "string"
                },
                {
                    "internalType": "string",
                    "name": "nftSymbol",
                    "type": "string"
                }
            ],
            "stateMutability": "view",
            "type": "function"
        },
        {
            "inputs": [
                {
                    "internalType": "contract DefiMinerNFT",
                    "name": "_nft",
                    "type": "address"
                }
            ],
            "name": "getCostToken",
            "outputs": [
                {
                    "internalType": "contract ERC20",
                    "name": "",
                    "type": "address"
                }
            ],
            "stateMutability": "view",
            "type": "function"
        },
        {
            "inputs": [
                {
                    "internalType": "contract DefiMinerNFT",
                    "name": "_nft",
                    "type": "address"
                }
            ],
            "name": "getPrice",
            "outputs": [
                {
                    "internalType": "uint256",
                    "name": "",
                    "type": "uint256"
                }
            ],
            "stateMutability": "view",
            "type": "function"
        },
        {
            "inputs": [
                {
                    "internalType": "contract DefiMinerNFT",
                    "name": "_nft",
                    "type": "address"
                }
            ],
            "name": "getWhitelist",
            "outputs": [
                {
                    "internalType": "contract Whitelist",
                    "name": "",
                    "type": "address"
                }
            ],
            "stateMutability": "view",
            "type": "function"
        },
        {
            "inputs": [
                {
                    "internalType": "contract DefiMinerNFT",
                    "name": "_nft",
                    "type": "address"
                }
            ],
            "name": "mintNFT",
            "outputs": [],
            "stateMutability": "nonpayable",
            "type": "function"
        },
        {
            "inputs": [],
            "name": "owner",
            "outputs": [
                {
                    "internalType": "address",
                    "name": "",
                    "type": "address"
                }
            ],
            "stateMutability": "view",
            "type": "function"
        },
        {
            "inputs": [],
            "name": "renounceOwnership",
            "outputs": [],
            "stateMutability": "nonpayable",
            "type": "function"
        },
        {
            "inputs": [
                {
                    "internalType": "contract DefiMinerNFT",
                    "name": "_nft",
                    "type": "address"
                },
                {
                    "internalType": "contract ERC20",
                    "name": "_newPriceToken",
                    "type": "address"
                }
            ],
            "name": "setCostToken",
            "outputs": [],
            "stateMutability": "nonpayable",
            "type": "function"
        },
        {
            "inputs": [
                {
                    "internalType": "contract DefiMinerNFT",
                    "name": "_nft",
                    "type": "address"
                },
                {
                    "internalType": "string",
                    "name": "_description",
                    "type": "string"
                }
            ],
            "name": "setDescription",
            "outputs": [],
            "stateMutability": "nonpayable",
            "type": "function"
        },
        {
            "inputs": [
                {
                    "internalType": "contract DefiMinerNFT",
                    "name": "_nft",
                    "type": "address"
                },
                {
                    "internalType": "uint256",
                    "name": "_newPrice",
                    "type": "uint256"
                }
            ],
            "name": "setPrice",
            "outputs": [],
            "stateMutability": "nonpayable",
            "type": "function"
        },
        {
            "inputs": [
                {
                    "internalType": "address",
                    "name": "newOwner",
                    "type": "address"
                }
            ],
            "name": "transferOwnership",
            "outputs": [],
            "stateMutability": "nonpayable",
            "type": "function"
        }
    ],
    "bytecode": "608060405234801561001057600080fd5b5061001a3361001f565b61006f565b600080546001600160a01b038381166001600160a01b0319831681178455604051919092169283917f8be0079c531659141344cd1fd0a4f28419497f9722a3daafe3b4186f6b6457e09190a35050565b611a908061007e6000396000f3fe608060405234801561001057600080fd5b50600436106100e95760003560e01c80636e2055511161008c5780638da5cb5b116100665780638da5cb5b146101df578063ef950554146101f0578063f2fde38b14610203578063f98237fd14610216576100e9565b80636e205551146101b1578063715018a6146101c4578063767510c5146101cc576100e9565b806330edc0f5116100c857806330edc0f51461012957806336242fec1461015957806341976e091461017d57806354ba0f271461019e576100e9565b8062e4768b146100ee5780630323bd5814610103578063202f3e8c14610116575b600080fd5b6101016100fc366004611652565b610229565b005b610101610111366004611604565b6102bc565b61010161012436600461155f565b61035d565b61013c610137366004611454565b6103a1565b6040516001600160a01b0390911681526020015b60405180910390f35b61016c610167366004611454565b610484565b60405161015095949392919061181f565b61019061018b366004611454565b6108ba565b604051908152602001610150565b6101016101ac366004611454565b610919565b6101016101bf3660046114cf565b610ce0565b610101610d24565b6101016101da366004611497565b610d5a565b6000546001600160a01b031661013c565b61013c6101fe366004611454565b610df6565b610101610211366004611454565b610e58565b610101610224366004611454565b610ef3565b6000546001600160a01b0316331461025c5760405162461bcd60e51b8152600401610253906117a2565b60405180910390fd5b6001600160a01b03821660009081526001602081905260409091206008015460ff1615151461029d5760405162461bcd60e51b8152600401610253906117d7565b6001600160a01b03909116600090815260016020526040902060030155565b6000546001600160a01b031633146102e65760405162461bcd60e51b8152600401610253906117a2565b6001600160a01b03821660009081526001602081905260409091206008015460ff161515146103275760405162461bcd60e51b8152600401610253906117d7565b6001600160a01b038216600090815260016020908152604090912082519091610357916007840191850190611332565b50505050565b6000546001600160a01b031633146103875760405162461bcd60e51b8152600401610253906117a2565b610397888888888888888861100c565b5050505050505050565b6001600160a01b038116600090815260016020819052604082206008015460ff161515146103e15760405162461bcd60e51b8152600401610253906117d7565b6001600160a01b038216600090815260016020819052604090912060088101549091600160a81b90910460ff1615151461046c5760405162461bcd60e51b815260206004820152602660248201527f54686973204e465420426174636820646f65736e2774207573652061207768696044820152651d195b1a5cdd60d21b6064820152608401610253565b6008015461010090046001600160a01b031692915050565b604080516101608101825260008082526020820181905291810182905260608082018390526080820183905260a0820183905260c0820183905260e0820152610100810182905261012081018290526101408101919091526001600160a01b03821660009081526001602081905260409091206008015460609182918291829160ff161515146105485760405162461bcd60e51b815260206004820152600f60248201526e2737902130ba31b4103337bab7321760891b6044820152606401610253565b6001600160a01b03808716600090815260016020526040808220600281015482516306fdde0360e01b81529251919485949116926306fdde039260048083019392829003018186803b15801561059d57600080fd5b505afa1580156105b1573d6000803e3d6000fd5b505050506040513d6000823e601f3d908101601f191682016040526105d99190810190611699565b8260020160009054906101000a90046001600160a01b03166001600160a01b03166395d89b416040518163ffffffff1660e01b815260040160006040518083038186803b15801561062957600080fd5b505afa15801561063d573d6000803e3d6000fd5b505050506040513d6000823e601f3d908101601f191682016040526106659190810190611699565b8360010160009054906101000a90046001600160a01b03166001600160a01b03166306fdde036040518163ffffffff1660e01b815260040160006040518083038186803b1580156106b557600080fd5b505afa1580156106c9573d6000803e3d6000fd5b505050506040513d6000823e601f3d908101601f191682016040526106f19190810190611699565b8460010160009054906101000a90046001600160a01b03166001600160a01b03166395d89b416040518163ffffffff1660e01b815260040160006040518083038186803b15801561074157600080fd5b505afa158015610755573d6000803e3d6000fd5b505050506040513d6000823e601f3d908101601f1916820160405261077d9190810190611699565b60408051610160810182528654815260018701546001600160a01b03908116602083015260028801548116928201929092526003870154606082015260048701546080820152600587015460a0820152600687015490911660c0820152600786018054879160e08401916107f0906119cd565b80601f016020809104026020016040519081016040528092919081815260200182805461081c906119cd565b80156108695780601f1061083e57610100808354040283529160200191610869565b820191906000526020600020905b81548152906001019060200180831161084c57829003601f168201915b50505091835250506008919091015460ff8082161515602084015261010082046001600160a01b03166040840152600160a81b9091041615156060909101529c939b50919950975095509350505050565b6001600160a01b038116600090815260016020819052604082206008015460ff161515146108fa5760405162461bcd60e51b8152600401610253906117d7565b506001600160a01b031660009081526001602052604090206003015490565b6001600160a01b03811660009081526001602081905260409091206008015460ff1615151461095a5760405162461bcd60e51b8152600401610253906117d7565b6001600160a01b0381811660009081526001602052604090819020600381015460028201549251636eb1769f60e11b815233600482015230602482015291939092169063dd62ed3e9060440160206040518083038186803b1580156109be57600080fd5b505afa1580156109d2573d6000803e3d6000fd5b505050506040513d601f19601f820116820180604052508101906109f6919061170c565b1015610a445760405162461bcd60e51b815260206004820152601860248201527f507269636520746f6b656e206e6f7420617070726f76656400000000000000006044820152606401610253565b600381015460028201546040516370a0823160e01b81523360048201526001600160a01b03909116906370a082319060240160206040518083038186803b158015610a8e57600080fd5b505afa158015610aa2573d6000803e3d6000fd5b505050506040513d601f19601f82011682018060405250810190610ac6919061170c565b1015610b145760405162461bcd60e51b815260206004820152601b60248201527f4e6f7420656e6f7567682066756e647320746f20627579204e465400000000006044820152606401610253565b8060040154816005015410610b6b5760405162461bcd60e51b815260206004820152601760248201527f5468697320426174636820697320736f6c64206f75742e0000000000000000006044820152606401610253565b6002810154600682015460038301546040516323b872dd60e01b81523360048201526001600160a01b03928316602482015260448101919091529116906323b872dd90606401602060405180830381600087803b158015610bcb57600080fd5b505af1158015610bdf573d6000803e3d6000fd5b505050506040513d601f19601f82011682018060405250810190610c039190611477565b506040516340d097c360e01b81523360048201526001600160a01b038316906340d097c390602401600060405180830381600087803b158015610c4557600080fd5b505af1158015610c59573d6000803e3d6000fd5b50505060058201805491506000610c6f83611a08565b9091555050600281015460038201546006830154604080513381526001600160a01b0387811660208301529485168183015260608101939093529216608082015290517f8a8cdf1bd6b94ddbfc2f2d65f55dc1906269ea59e0132302288dc3dbea6c09f59181900360a00190a15050565b6000546001600160a01b03163314610d0a5760405162461bcd60e51b8152600401610253906117a2565b610d1b87878787878787600061100c565b50505050505050565b6000546001600160a01b03163314610d4e5760405162461bcd60e51b8152600401610253906117a2565b610d5860006112e2565b565b6000546001600160a01b03163314610d845760405162461bcd60e51b8152600401610253906117a2565b6001600160a01b03821660009081526001602081905260409091206008015460ff16151514610dc55760405162461bcd60e51b8152600401610253906117d7565b6001600160a01b03918216600090815260016020526040902060020180546001600160a01b03191691909216179055565b6001600160a01b038116600090815260016020819052604082206008015460ff16151514610e365760405162461bcd60e51b8152600401610253906117d7565b506001600160a01b039081166000908152600160205260409020600201541690565b6000546001600160a01b03163314610e825760405162461bcd60e51b8152600401610253906117a2565b6001600160a01b038116610ee75760405162461bcd60e51b815260206004820152602660248201527f4f776e61626c653a206e6577206f776e657220697320746865207a65726f206160448201526564647265737360d01b6064820152608401610253565b610ef0816112e2565b50565b6000546001600160a01b03163314610f1d5760405162461bcd60e51b8152600401610253906117a2565b6001600160a01b03811660009081526001602081905260409091206008015460ff16151514610f8e5760405162461bcd60e51b815260206004820152601c60248201527f4e6f20426174636820666f756e6420666f722074686973204e46542e000000006044820152606401610253565b6001600160a01b0381166000908152600160208190526040822082815590810180546001600160a01b031990811690915560028201805482169055600382018390556004820183905560058201839055600682018054909116905590610ff760078301826113b6565b5060080180546001600160b01b031916905550565b306001600160a01b0316886001600160a01b0316631afb27406040518163ffffffff1660e01b815260040160206040518083038186803b15801561104f57600080fd5b505afa158015611063573d6000803e3d6000fd5b505050506040513d601f19601f82011682018060405250810190611087919061167d565b6001600160a01b0316146110ed5760405162461bcd60e51b815260206004820152602760248201527f53686f70205661726961626c65206f6620446566694d696e65724e4654206973604482015266103bb937b7339760c91b6064820152608401610253565b6001600160a01b03881660009081526001602052604090206008015460ff16156111505760405162461bcd60e51b8152602060048201526014602482015273426174636820616c72656164792065786973747360601b6044820152606401610253565b60408051610160810182524281526001600160a01b03808b1660208084018281528c8416858701908152606086018d8152608087018d815260a088018d81528c881660c08a0190815260e08a018d815260016101008c018190528d8b166101208d0181905215156101408d01526000998a528089529b9098208a51815595519a860180549b8a166001600160a01b03199c8d161790559351600286018054918a16918c169190911790559151600385015551600484015551600583015551600682018054919095169616959095179092555180519293926112379260078501920190611332565b506101008281015160089290920180546101208501516101409095015160ff1990911693151593909317610100600160a81b0319166001600160a01b039094169091029290921760ff60a81b1916600160a81b911515919091021790556040517fd67c1d4bf70cceefafb6018932af0d65aa313b896c742be2cdacad8982d530d1906112d0908a908a908a908a908a908a908a90611750565b60405180910390a15050505050505050565b600080546001600160a01b038381166001600160a01b0319831681178455604051919092169283917f8be0079c531659141344cd1fd0a4f28419497f9722a3daafe3b4186f6b6457e09190a35050565b82805461133e906119cd565b90600052602060002090601f01602090048101928261136057600085556113a6565b82601f1061137957805160ff19168380011785556113a6565b828001600101855582156113a6579182015b828111156113a657825182559160200191906001019061138b565b506113b29291506113ee565b5090565b5080546113c2906119cd565b6000825580601f106113d45750610ef0565b601f016020900490600052602060002090810190610ef091905b5b808211156113b257600081556001016113ef565b600082601f830112611413578081fd5b813561142661142182611979565b611948565b81815284602083860101111561143a578283fd5b816020850160208301379081016020019190915292915050565b600060208284031215611465578081fd5b813561147081611a45565b9392505050565b600060208284031215611488578081fd5b81518015158114611470578182fd5b600080604083850312156114a9578081fd5b82356114b481611a45565b915060208301356114c481611a45565b809150509250929050565b600080600080600080600060e0888a0312156114e9578283fd5b87356114f481611a45565b9650602088013561150481611a45565b955060408801359450606088013593506080880135925060a088013561152981611a45565b915060c088013567ffffffffffffffff811115611544578182fd5b6115508a828b01611403565b91505092959891949750929550565b600080600080600080600080610100898b03121561157b578081fd5b883561158681611a45565b9750602089013561159681611a45565b965060408901359550606089013594506080890135935060a08901356115bb81611a45565b925060c089013567ffffffffffffffff8111156115d6578182fd5b6115e28b828c01611403565b92505060e08901356115f381611a45565b809150509295985092959890939650565b60008060408385031215611616578182fd5b823561162181611a45565b9150602083013567ffffffffffffffff81111561163c578182fd5b61164885828601611403565b9150509250929050565b60008060408385031215611664578182fd5b823561166f81611a45565b946020939093013593505050565b60006020828403121561168e578081fd5b815161147081611a45565b6000602082840312156116aa578081fd5b815167ffffffffffffffff8111156116c0578182fd5b8201601f810184136116d0578182fd5b80516116de61142182611979565b8181528560208385010111156116f2578384fd5b6117038260208301602086016119a1565b95945050505050565b60006020828403121561171d578081fd5b5051919050565b6000815180845261173c8160208601602086016119a1565b601f01601f19169290920160200192915050565b600060018060a01b03808a168352808916602084015287604084015286606084015285608084015280851660a08401525060e060c083015261179560e0830184611724565b9998505050505050505050565b6020808252818101527f4f776e61626c653a2063616c6c6572206973206e6f7420746865206f776e6572604082015260600190565b60208082526028908201527f54686973204e46542063616e277420626520626f75676874206865726520726960408201526733b43a103737bb9760c11b606082015260800190565b600060a08252865160a0830152602087015161184660c08401826001600160a01b03169052565b5060408701516001600160a01b03811660e0840152506060870151610100818185015260808901519150610120828186015260a08a01519250610140838187015260c08b015193506101606118a5818801866001600160a01b03169052565b60e08c0151945080610180880152506118c2610200870185611724565b928b015115156101a0870152908a01516001600160a01b03166101c086015289015115156101e0850152838103602085015290506119008188611724565b905082810360408401526119148187611724565b905082810360608401526119288186611724565b9050828103608084015261193c8185611724565b98975050505050505050565b604051601f8201601f1916810167ffffffffffffffff8111828210171561197157611971611a2f565b604052919050565b600067ffffffffffffffff82111561199357611993611a2f565b50601f01601f191660200190565b60005b838110156119bc5781810151838201526020016119a4565b838111156103575750506000910152565b6002810460018216806119e157607f821691505b60208210811415611a0257634e487b7160e01b600052602260045260246000fd5b50919050565b6000600019821415611a2857634e487b7160e01b81526011600452602481fd5b5060010190565b634e487b7160e01b600052604160045260246000fd5b6001600160a01b0381168114610ef057600080fdfea2646970667358221220b8e89fc59547b18a75abc2bc2238b98b345106ebd8731143a78520eaf38b272764736f6c63430008020033",
    "sourcePath": "/home/lukas/Solidity/DefiMinersClub/contracts/nft/NFTShop.sol",
    "compiler": {
        "name": "solc",
        "version": "0.8.2+commit.661d1103"
    },
    "functionHashes": {
        "createNFTBatch(address,address,uint256,uint256,uint256,address,string)": "6e205551",
        "createWhitelistedNFTBatch(address,address,uint256,uint256,uint256,address,string,address)": "202f3e8c",
        "deleteBatch(address)": "f98237fd",
        "getBatch(address)": "36242fec",
        "getCostToken(address)": "ef950554",
        "getPrice(address)": "41976e09",
        "getWhitelist(address)": "30edc0f5",
        "mintNFT(address)": "54ba0f27",
        "owner()": "8da5cb5b",
        "renounceOwnership()": "715018a6",
        "setCostToken(address,address)": "767510c5",
        "setDescription(address,string)": "0323bd58",
        "setPrice(address,uint256)": "00e4768b",
        "transferOwnership(address)": "f2fde38b"
    },
    "gasEstimates": {
        "creation": {
            "codeDepositCost": "1360000",
            "executionCost": "23858",
            "totalCost": "1383858"
        },
        "external": {
            "createNFTBatch(address,address,uint256,uint256,uint256,address,string)": "infinite",
            "createWhitelistedNFTBatch(address,address,uint256,uint256,uint256,address,string,address)": "infinite",
            "deleteBatch(address)": "infinite",
            "getBatch(address)": "infinite",
            "getCostToken(address)": "2245",
            "getPrice(address)": "2249",
            "getWhitelist(address)": "3125",
            "mintNFT(address)": "infinite",
            "owner()": "1042",
            "renounceOwnership()": "23459",
            "setCostToken(address,address)": "infinite",
            "setDescription(address,string)": "infinite",
            "setPrice(address,uint256)": "22214",
            "transferOwnership(address)": "infinite"
        },
        "internal": {
            "internalCreateBatch(contract DefiMinerNFT,contract ERC20,uint256,uint256,uint256,address,string memory,contract Whitelist)": "infinite"
        }
    }
}