{
    "contractName": "YieldStorage",
    "abi": [
        {
            "inputs": [
                {
                    "internalType": "contract NFTStaking",
                    "name": "_staker",
                    "type": "address"
                },
                {
                    "internalType": "contract ERC20",
                    "name": "_payoutToken",
                    "type": "address"
                },
                {
                    "internalType": "uint256",
                    "name": "_periodInSeconds",
                    "type": "uint256"
                },
                {
                    "internalType": "uint8",
                    "name": "weekDayStartPeriods",
                    "type": "uint8"
                }
            ],
            "stateMutability": "nonpayable",
            "type": "constructor"
        },
        {
            "anonymous": false,
            "inputs": [
                {
                    "indexed": false,
                    "internalType": "address",
                    "name": "miner",
                    "type": "address"
                },
                {
                    "indexed": false,
                    "internalType": "contract DefiMinerNFT",
                    "name": "_nft",
                    "type": "address"
                },
                {
                    "indexed": false,
                    "internalType": "uint256",
                    "name": "_tokenID",
                    "type": "uint256"
                },
                {
                    "indexed": false,
                    "internalType": "uint256",
                    "name": "_amount",
                    "type": "uint256"
                }
            ],
            "name": "Cashout",
            "type": "event"
        },
        {
            "anonymous": false,
            "inputs": [
                {
                    "indexed": false,
                    "internalType": "address",
                    "name": "miner",
                    "type": "address"
                },
                {
                    "indexed": false,
                    "internalType": "contract DefiMinerNFT",
                    "name": "_nft",
                    "type": "address"
                },
                {
                    "indexed": false,
                    "internalType": "uint256",
                    "name": "_tokenID",
                    "type": "uint256"
                },
                {
                    "indexed": false,
                    "internalType": "uint256",
                    "name": "period",
                    "type": "uint256"
                },
                {
                    "indexed": false,
                    "internalType": "uint256",
                    "name": "_timestamp",
                    "type": "uint256"
                }
            ],
            "name": "NFTStaked",
            "type": "event"
        },
        {
            "anonymous": false,
            "inputs": [
                {
                    "indexed": false,
                    "internalType": "address",
                    "name": "miner",
                    "type": "address"
                },
                {
                    "indexed": false,
                    "internalType": "contract DefiMinerNFT",
                    "name": "_nft",
                    "type": "address"
                },
                {
                    "indexed": false,
                    "internalType": "uint256",
                    "name": "_tokenID",
                    "type": "uint256"
                },
                {
                    "indexed": false,
                    "internalType": "uint256",
                    "name": "period",
                    "type": "uint256"
                },
                {
                    "indexed": false,
                    "internalType": "uint256",
                    "name": "_timestamp",
                    "type": "uint256"
                }
            ],
            "name": "NFTUnStaked",
            "type": "event"
        },
        {
            "anonymous": false,
            "inputs": [
                {
                    "indexed": true,
                    "internalType": "address",
                    "name": "previousOwner",
                    "type": "address"
                },
                {
                    "indexed": true,
                    "internalType": "address",
                    "name": "newOwner",
                    "type": "address"
                }
            ],
            "name": "OwnershipTransferred",
            "type": "event"
        },
        {
            "anonymous": false,
            "inputs": [
                {
                    "indexed": false,
                    "internalType": "contract DefiMinerNFT",
                    "name": "_nft",
                    "type": "address"
                },
                {
                    "indexed": false,
                    "internalType": "uint256",
                    "name": "_amount",
                    "type": "uint256"
                },
                {
                    "indexed": false,
                    "internalType": "uint256",
                    "name": "_timestamp",
                    "type": "uint256"
                },
                {
                    "indexed": false,
                    "internalType": "uint256",
                    "name": "_periodOfYield",
                    "type": "uint256"
                }
            ],
            "name": "YieldAdded",
            "type": "event"
        },
        {
            "inputs": [
                {
                    "internalType": "contract DefiMinerNFT",
                    "name": "_nft",
                    "type": "address"
                },
                {
                    "internalType": "uint256",
                    "name": "_amount",
                    "type": "uint256"
                },
                {
                    "internalType": "uint256",
                    "name": "_timestamp",
                    "type": "uint256"
                }
            ],
            "name": "addYield",
            "outputs": [],
            "stateMutability": "nonpayable",
            "type": "function"
        },
        {
            "inputs": [
                {
                    "components": [
                        {
                            "internalType": "uint16",
                            "name": "year",
                            "type": "uint16"
                        },
                        {
                            "internalType": "uint8",
                            "name": "month",
                            "type": "uint8"
                        },
                        {
                            "internalType": "uint8",
                            "name": "day",
                            "type": "uint8"
                        },
                        {
                            "internalType": "uint8",
                            "name": "hour",
                            "type": "uint8"
                        },
                        {
                            "internalType": "uint8",
                            "name": "minute",
                            "type": "uint8"
                        },
                        {
                            "internalType": "uint8",
                            "name": "second",
                            "type": "uint8"
                        },
                        {
                            "internalType": "uint8",
                            "name": "weekday",
                            "type": "uint8"
                        }
                    ],
                    "internalType": "struct DateTime._DateTime",
                    "name": "dateTime",
                    "type": "tuple"
                }
            ],
            "name": "calculatePeriodIdentifier",
            "outputs": [
                {
                    "internalType": "uint256",
                    "name": "payoutID",
                    "type": "uint256"
                }
            ],
            "stateMutability": "view",
            "type": "function"
        },
        {
            "inputs": [
                {
                    "internalType": "uint256",
                    "name": "_timestamp",
                    "type": "uint256"
                }
            ],
            "name": "calculatePeriodIdentifier",
            "outputs": [
                {
                    "internalType": "uint256",
                    "name": "payoutID",
                    "type": "uint256"
                }
            ],
            "stateMutability": "view",
            "type": "function"
        },
        {
            "inputs": [
                {
                    "internalType": "contract DefiMinerNFT",
                    "name": "_nft",
                    "type": "address"
                },
                {
                    "internalType": "uint256",
                    "name": "_tokenID",
                    "type": "uint256"
                }
            ],
            "name": "cashout",
            "outputs": [
                {
                    "internalType": "uint256",
                    "name": "cashoutAmount",
                    "type": "uint256"
                }
            ],
            "stateMutability": "nonpayable",
            "type": "function"
        },
        {
            "inputs": [],
            "name": "getBlockTime",
            "outputs": [
                {
                    "internalType": "uint256",
                    "name": "",
                    "type": "uint256"
                }
            ],
            "stateMutability": "view",
            "type": "function"
        },
        {
            "inputs": [
                {
                    "internalType": "contract DefiMinerNFT",
                    "name": "_nft",
                    "type": "address"
                },
                {
                    "internalType": "uint256",
                    "name": "_tokenID",
                    "type": "uint256"
                }
            ],
            "name": "getClaimableLoot",
            "outputs": [
                {
                    "internalType": "uint256",
                    "name": "claimableLoot",
                    "type": "uint256"
                }
            ],
            "stateMutability": "view",
            "type": "function"
        },
        {
            "inputs": [],
            "name": "getPayoutToken",
            "outputs": [
                {
                    "internalType": "contract ERC20",
                    "name": "",
                    "type": "address"
                }
            ],
            "stateMutability": "view",
            "type": "function"
        },
        {
            "inputs": [],
            "name": "getPeriodTime",
            "outputs": [
                {
                    "internalType": "uint256",
                    "name": "",
                    "type": "uint256"
                }
            ],
            "stateMutability": "view",
            "type": "function"
        },
        {
            "inputs": [
                {
                    "internalType": "contract DefiMinerNFT",
                    "name": "_nft",
                    "type": "address"
                },
                {
                    "internalType": "uint256",
                    "name": "_timestamp",
                    "type": "uint256"
                }
            ],
            "name": "getStakedNFTs",
            "outputs": [
                {
                    "internalType": "uint256",
                    "name": "",
                    "type": "uint256"
                }
            ],
            "stateMutability": "view",
            "type": "function"
        },
        {
            "inputs": [
                {
                    "internalType": "contract DefiMinerNFT",
                    "name": "_nft",
                    "type": "address"
                }
            ],
            "name": "getStakedNFTs",
            "outputs": [
                {
                    "internalType": "uint256",
                    "name": "",
                    "type": "uint256"
                }
            ],
            "stateMutability": "view",
            "type": "function"
        },
        {
            "inputs": [],
            "name": "getStaker",
            "outputs": [
                {
                    "internalType": "contract NFTStaking",
                    "name": "",
                    "type": "address"
                }
            ],
            "stateMutability": "view",
            "type": "function"
        },
        {
            "inputs": [],
            "name": "getStartTime",
            "outputs": [
                {
                    "internalType": "uint256",
                    "name": "",
                    "type": "uint256"
                }
            ],
            "stateMutability": "view",
            "type": "function"
        },
        {
            "inputs": [
                {
                    "internalType": "contract DefiMinerNFT",
                    "name": "_nft",
                    "type": "address"
                },
                {
                    "internalType": "uint256",
                    "name": "_tokenID",
                    "type": "uint256"
                }
            ],
            "name": "onStake",
            "outputs": [],
            "stateMutability": "nonpayable",
            "type": "function"
        },
        {
            "inputs": [
                {
                    "internalType": "contract DefiMinerNFT",
                    "name": "_nft",
                    "type": "address"
                },
                {
                    "internalType": "uint256",
                    "name": "_tokenID",
                    "type": "uint256"
                }
            ],
            "name": "onUnStake",
            "outputs": [],
            "stateMutability": "nonpayable",
            "type": "function"
        },
        {
            "inputs": [],
            "name": "owner",
            "outputs": [
                {
                    "internalType": "address",
                    "name": "",
                    "type": "address"
                }
            ],
            "stateMutability": "view",
            "type": "function"
        },
        {
            "inputs": [],
            "name": "renounceOwnership",
            "outputs": [],
            "stateMutability": "nonpayable",
            "type": "function"
        },
        {
            "inputs": [
                {
                    "internalType": "contract ERC20",
                    "name": "_newPayoutToken",
                    "type": "address"
                }
            ],
            "name": "setPayoutToken",
            "outputs": [],
            "stateMutability": "nonpayable",
            "type": "function"
        },
        {
            "inputs": [
                {
                    "internalType": "contract NFTStaking",
                    "name": "_staker",
                    "type": "address"
                }
            ],
            "name": "setStaker",
            "outputs": [],
            "stateMutability": "nonpayable",
            "type": "function"
        },
        {
            "inputs": [
                {
                    "internalType": "address",
                    "name": "newOwner",
                    "type": "address"
                }
            ],
            "name": "transferOwnership",
            "outputs": [],
            "stateMutability": "nonpayable",
            "type": "function"
        }
    ],
    "bytecode": "608060405262093a806004553480156200001857600080fd5b5060405162002a2f38038062002a2f8339810160408190526200003b9162000963565b836200004733620001ba565b600180546001600160a01b0319166001600160a01b0392909216919091179055620000764260ff83166200020a565b600355600280546001600160a01b0319166001600160a01b03851617905562015180821015620000fb5760405162461bcd60e51b815260206004820152602560248201527f4d696e696d756d207061796f757420706572696f64206c656e67746820697320604482015264312064617960d81b60648201526084015b60405180910390fd5b600160009054906101000a90046001600160a01b03166001600160a01b031663402fbbd86040518163ffffffff1660e01b815260040160206040518083038186803b1580156200014a57600080fd5b505afa1580156200015f573d6000803e3d6000fd5b505050506040513d601f19601f82011682018060405250810190620001859190620009bc565b6200019290601862000a2b565b620001a090610e1062000a2b565b821115620001ad57600080fd5b506004555062000b309050565b600080546001600160a01b038381166001600160a01b0319831681178455604051919092169283917f8be0079c531659141344cd1fd0a4f28419497f9722a3daafe3b4186f6b6457e09190a35050565b6000600182101580156200021f575060078211155b6200027f5760405162461bcd60e51b815260206004820152602960248201527f7765656b4461795374617274506572696f64732068617320746f2062652077696044820152687468696e6720312d3760b81b6064820152608401620000f2565b62093a80600062000291828662000a73565b60405163095835af60e31b81526004810182905290915060009073__$f8d29ff517cdae94fb2a6d7290870ab8b2$__90634ac1ad789060240160206040518083038186803b158015620002e357600080fd5b505af4158015620002f8573d6000803e3d6000fd5b505050506040513d601f19601f820116820180604052508101906200031e9190620009d5565b60ff169050600062000331828762000a73565b62000340906201518062000a2b565b9050600062000365620003548386620009f9565b6200041d60201b620012e51760201c565b8051602082015160408084015190516304646cc560e51b815261ffff909316600484015260ff918216602484015216604482015290915073__$f8d29ff517cdae94fb2a6d7290870ab8b2$__90638c8d98a09060640160206040518083038186803b158015620003d457600080fd5b505af4158015620003e9573d6000803e3d6000fd5b505050506040513d601f19601f820116820180604052508101906200040f9190620009bc565b955050505050505b92915050565b6040805160e081018252600080825260208201819052918101829052606081018290526080810182905260a0810182905260c08101829052908080620004638562000639565b61ffff168452620004766107b262000754565b8451620004879061ffff1662000754565b62000493919062000a73565b9150620004a5826301e2850062000a2b565b620004b19084620009f9565b9250816107b28560000151620004c8919062000a4d565b61ffff16620004d8919062000a73565b620004e8906301e1338062000a2b565b620004f49084620009f9565b92506000600191505b600c8260ff16116200057257845162000518908390620007a5565b6200052a9060ff166201518062000a2b565b905085620005398583620009f9565b11156200054f5760ff8216602086015262000572565b6200055b8185620009f9565b935081620005698162000a8d565b925050620004fd565b600191505b602085015185516200058a9190620007a5565b60ff168260ff1611620005e35785620005a78562015180620009f9565b1115620005bd5760ff82166040860152620005e3565b620005cc6201518085620009f9565b935081620005da8162000a8d565b92505062000577565b620005ee866200087d565b60ff1660608601526200060186620008a7565b60ff1660808601526200061486620008b7565b60ff1660a08601526200062786620008c6565b60ff1660c08601525092949350505050565b60008080806200064e6301e133808662000a14565b6200065c906107b2620009f9565b91506200066b6107b262000754565b6200067a61ffff841662000754565b62000686919062000a73565b905062000698816301e2850062000a2b565b620006a49084620009f9565b925080620006b56107b28462000a4d565b61ffff16620006c5919062000a73565b620006d5906301e1338062000a2b565b620006e19084620009f9565b92505b848311156200074a5762000704620006fe60018462000a4d565b620008e6565b1562000722576200071a6301e285008462000a73565b925062000735565b620007326301e133808462000a73565b92505b6200074260018362000a4d565b9150620006e4565b509150505b919050565b60006200076360018362000a73565b9150620007736101908362000a14565b6200078060648462000a14565b6200078d60048562000a14565b62000799919062000a73565b620004179190620009f9565b60008260ff1660011480620007bd57508260ff166003145b80620007cc57508260ff166005145b80620007db57508260ff166007145b80620007ea57508260ff166008145b80620007f957508260ff16600a145b806200080857508260ff16600c145b15620008175750601f62000417565b8260ff16600414806200082d57508260ff166006145b806200083c57508260ff166009145b806200084b57508260ff16600b145b156200085a5750601e62000417565b6200086582620008e6565b15620008745750601d62000417565b50601c62000417565b60006018603c6200088f818562000a14565b6200089b919062000a14565b62000417919062000ad4565b6000603c6200089b818462000a14565b600062000417603c8362000ad4565b60006007620008d9620151808462000a14565b6200089b906004620009f9565b6000620008f560048362000ab0565b61ffff161562000908575060006200074f565b6200091560648362000ab0565b61ffff161562000928575060016200074f565b620009366101908362000ab0565b61ffff161562000949575060006200074f565b506001919050565b805160ff811681146200074f57600080fd5b6000806000806080858703121562000979578384fd5b8451620009868162000b17565b6020860151909450620009998162000b17565b60408601519093509150620009b16060860162000951565b905092959194509250565b600060208284031215620009ce578081fd5b5051919050565b600060208284031215620009e7578081fd5b620009f28262000951565b9392505050565b6000821982111562000a0f5762000a0f62000aeb565b500190565b60008262000a265762000a2662000b01565b500490565b600081600019048311821515161562000a485762000a4862000aeb565b500290565b600061ffff8381169083168181101562000a6b5762000a6b62000aeb565b039392505050565b60008282101562000a885762000a8862000aeb565b500390565b600060ff821660ff81141562000aa75762000aa762000aeb565b60010192915050565b600061ffff8084168062000ac85762000ac862000b01565b92169190910692915050565b60008262000ae65762000ae662000b01565b500690565b634e487b7160e01b600052601160045260246000fd5b634e487b7160e01b600052601260045260246000fd5b6001600160a01b038116811462000b2d57600080fd5b50565b611eef8062000b406000396000f3fe608060405234801561001057600080fd5b50600436106101215760003560e01c806372b45a55116100ad578063a29a43bb11610071578063a29a43bb14610230578063b7b172b314610243578063c828371e14610256578063f02ae48f1461025e578063f2fde38b1461027157610121565b806372b45a55146101e257806383a09b30146101f357806387ceff09146102065780638c087b1c1461020c5780638da5cb5b1461021f57610121565b806337410d6b116100f457806337410d6b1461018e57806350a029f9146101a1578063532f5968146101b45780636f70d212146101c7578063715018a6146101da57610121565b8063059ed66d14610126578063095d122f1461014c578063168423341461016157806325cd359814610169575b600080fd5b610139610134366004611ac6565b610284565b6040519081526020015b60405180910390f35b61015f61015a366004611ac6565b6102f6565b005b600454610139565b6002546001600160a01b03165b6040516001600160a01b039091168152602001610143565b61013961019c366004611c3c565b6104ff565b6101396101af366004611ac6565b6105bb565b61015f6101c2366004611af1565b6106c5565b6101396101d5366004611a74565b6109b0565b61015f6109bc565b6001546001600160a01b0316610176565b610139610201366004611cd7565b6109f2565b42610139565b61015f61021a366004611ac6565b610a67565b6000546001600160a01b0316610176565b61015f61023e366004611a74565b610bf7565b610139610251366004611ac6565b610c43565b600354610139565b61015f61026c366004611a74565b6111fe565b61015f61027f366004611a74565b61124a565b60008061029184846114cd565b6001600160a01b038516600090815260086020908152604080832087845282529182902082516060810184528154808252600183015493820193909352600290910154818401529183015192935090916102eb9190611d6d565b925050505b92915050565b6001546001600160a01b031633146103515760405162461bcd60e51b815260206004820152601960248201527821b0b63632b91034b9ba103737ba103a34329029ba30b5b2b960391b60448201526064015b60405180910390fd5b600061035c426109f2565b6001600160a01b0384166000908152600560209081526040808320848452909152902060038101549192509060ff1661041e576001546040516326d352ab60e11b81526001600160a01b03868116600483015290911690634da6a5569060240160206040518083038186803b1580156103d457600080fd5b505afa1580156103e8573d6000803e3d6000fd5b505050506040513d601f19601f8201168201806040525081019061040c9190611cef565b815560038101805460ff191660011790555b6001600160a01b0384166000908152600660209081526040808320858452825280832086845290915290205460ff166104a25760018160020160008282546104669190611d6d565b90915550506001600160a01b038416600090815260066020908152604080832085845282528083208684529091529020805460ff191660011790555b604080513381526001600160a01b0386166020820152908101849052606081018390524260808201527fb6e8b2822cf889f7d79c23f7d62d299f34a91b8c57d46d166010bf5a35b3cc9f9060a0015b60405180910390a150505050565b8051602082015160408084015190516304646cc560e51b815261ffff909316600484015260ff9182166024840152166044820152600090819073__$f8d29ff517cdae94fb2a6d7290870ab8b2$__90638c8d98a09060640160206040518083038186803b15801561056f57600080fd5b505af4158015610583573d6000803e3d6000fd5b505050506040513d601f19601f820116820180604052508101906105a79190611cef565b90506105b2816109f2565b9150505b919050565b6000806105c7836109f2565b6001600160a01b038516600090815260056020908152604080832084845282528083208151608081018352815481526001820154938101939093526002810154918301919091526003015460ff1615801560608301529293509161062c5781516106a9565b6001546040516326d352ab60e11b81526001600160a01b03888116600483015290911690634da6a5569060240160206040518083038186803b15801561067157600080fd5b505afa158015610685573d6000803e3d6000fd5b505050506040513d601f19601f820116820180604052508101906106a99190611cef565b90508160400151816106bb9190611ddb565b9695505050505050565b6000546001600160a01b031633146106ef5760405162461bcd60e51b815260040161034890611d07565b60006106fa426109f2565b90506000610707836109f2565b9050600084116107505760405162461bcd60e51b81526020600482015260146024820152730416d6f756e742068617320746f206265203e20360641b6044820152606401610348565b600254604051636eb1769f60e11b815233600482015230602482015285916001600160a01b03169063dd62ed3e9060440160206040518083038186803b15801561079957600080fd5b505afa1580156107ad573d6000803e3d6000fd5b505050506040513d601f19601f820116820180604052508101906107d19190611cef565b101561081f5760405162461bcd60e51b815260206004820152601c60248201527f59533a205969656c6420746f6b656e206e6f7420617070726f766564000000006044820152606401610348565b8082116108815760405162461bcd60e51b815260206004820152602a60248201527f596f752063616e277420616464205969656c6420746f20616e206578697374696044820152693733903832b934b7b21760b11b6064820152608401610348565b6001600160a01b038516600090815260076020908152604080832084845290915290206108ae86856105bb565b60018201558054859082906000906108c7908490611d6d565b90915550506002546040516323b872dd60e01b8152336004820152306024820152604481018790526001600160a01b03909116906323b872dd90606401602060405180830381600087803b15801561091e57600080fd5b505af1158015610932573d6000803e3d6000fd5b505050506040513d601f19601f820116820180604052508101906109569190611aac565b50604080516001600160a01b038816815260208101879052908101859052606081018390527f6862d5c64f4bcb1b1224bd4d3f91dd5334bad9134f7b055ddf0ae60c43ad3a4c9060800160405180910390a1505050505050565b60006102f082426105bb565b6000546001600160a01b031633146109e65760405162461bcd60e51b815260040161034890611d07565b6109f0600061172a565b565b6000600354821015610a465760405162461bcd60e51b815260206004820152601f60248201527f5f74696d657374616d70206d757374206265203e3d20737461727474696d65006044820152606401610348565b6102f0600454610a616003548561177a90919063ffffffff16565b9061178d565b6001546001600160a01b03163314610abd5760405162461bcd60e51b815260206004820152601960248201527821b0b63632b91034b9ba103737ba103a34329029ba30b5b2b960391b6044820152606401610348565b6000610ac8426109f2565b6001600160a01b0384166000908152600560209081526040808320848452909152902060038101549192509060ff16610b8a576001546040516326d352ab60e11b81526001600160a01b03868116600483015290911690634da6a5569060240160206040518083038186803b158015610b4057600080fd5b505afa158015610b54573d6000803e3d6000fd5b505050506040513d601f19601f82011682018060405250810190610b789190611cef565b815560038101805460ff191660011790555b6001816001016000828254610b9f9190611d6d565b9091555050604080513381526001600160a01b0386166020820152908101849052606081018390524260808201527f5383157a7752240c7dcc99c7c0b073cbf2df62fb0bf237ed9c42d8eb2023f8ea9060a0016104f1565b6000546001600160a01b03163314610c215760405162461bcd60e51b815260040161034890611d07565b600180546001600160a01b0319166001600160a01b0392909216919091179055565b6001546040805163d01f63f560e01b815290516000926001600160a01b03169163d01f63f5916004808301926020929190829003018186803b158015610c8857600080fd5b505afa158015610c9c573d6000803e3d6000fd5b505050506040513d601f19601f82011682018060405250810190610cc09190611a90565b6040516330ccebb560e01b81526001600160a01b03858116600483015291909116906330ccebb59060240160206040518083038186803b158015610d0357600080fd5b505afa158015610d17573d6000803e3d6000fd5b505050506040513d601f19601f82011682018060405250810190610d3b9190611aac565b1515600114610da25760405162461bcd60e51b815260206004820152602d60248201527f59533a2054686973204e4654206973206e6f7420616e206f726967696e616c2060448201526c26b4b732b92137bc1027232a1760991b6064820152608401610348565b6040516370a0823160e01b81523360048201526000906001600160a01b038516906370a082319060240160206040518083038186803b158015610de457600080fd5b505afa158015610df8573d6000803e3d6000fd5b505050506040513d601f19601f82011682018060405250810190610e1c9190611cef565b11610e7a5760405162461bcd60e51b815260206004820152602860248201527f59533a20596f7520646f6e2774206f776e20616e79204e465473206f6620746860448201526734b99035b4b7321760c11b6064820152608401610348565b6040516331a9108f60e11b81526004810183905233906001600160a01b03851690636352211e9060240160206040518083038186803b158015610ebc57600080fd5b505afa158015610ed0573d6000803e3d6000fd5b505050506040513d601f19601f82011682018060405250810190610ef49190611a90565b6001600160a01b031614610f645760405162461bcd60e51b815260206004820152603160248201527f59533a20596f7520617265206e6f7420746865206f776e6572206f662074686960448201527039903830b93a34b1bab630b91027232a1760791b6064820152608401610348565b6000610f7084846114cd565b6001600160a01b0385166000908152600860209081526040808320878452909152902081519192509015610fd0578160400151816000016000828254610fb69190611d6d565b909155505060208201516002820155606082015160018201555b8054806110455760405162461bcd60e51b815260206004820152603a60248201527f596f752063616e206f6e6c7920636173686f7574207969656c6420696620746860448201527f657265206973207969656c64206c65667420666f7220796f752e0000000000006064820152608401610348565b6002546040516370a0823160e01b815230600482015282916001600160a01b0316906370a082319060240160206040518083038186803b15801561108857600080fd5b505afa15801561109c573d6000803e3d6000fd5b505050506040513d601f19601f820116820180604052508101906110c09190611cef565b101561111c5760405162461bcd60e51b815260206004820152602560248201527f59533a205969656c645061796f7574506f6f6c20697320736f6d65686f77206560448201526436b83a3c9760d91b6064820152608401610348565b6000825560025460405163a9059cbb60e01b8152336004820152602481018390526001600160a01b039091169063a9059cbb90604401602060405180830381600087803b15801561116c57600080fd5b505af1158015611180573d6000803e3d6000fd5b505050506040513d601f19601f820116820180604052508101906111a49190611aac565b50604080513381526001600160a01b0388166020820152908101869052606081018290527f2de793ff3866cfc932d6a4e3ea268b22adbb8af708670c1fbd65041fc4e241049060800160405180910390a195945050505050565b6000546001600160a01b031633146112285760405162461bcd60e51b815260040161034890611d07565b600280546001600160a01b0319166001600160a01b0392909216919091179055565b6000546001600160a01b031633146112745760405162461bcd60e51b815260040161034890611d07565b6001600160a01b0381166112d95760405162461bcd60e51b815260206004820152602660248201527f4f776e61626c653a206e6577206f776e657220697320746865207a65726f206160448201526564647265737360d01b6064820152608401610348565b6112e28161172a565b50565b6040805160e081018252600080825260208201819052918101829052606081018290526080810182905260a0810182905260c0810182905290808061132985611799565b61ffff16845261133a6107b261188e565b84516113499061ffff1661188e565b6113539190611ddb565b9150611363826301e28500611d99565b61136d9084611d6d565b9250816107b285600001516113829190611db8565b61ffff166113909190611ddb565b61139e906301e13380611d99565b6113a89084611d6d565b92506000600191505b600c8260ff1611611419576113ca8286600001516118d3565b6113da9060ff1662015180611d99565b9050856113e78583611d6d565b11156113fb5760ff82166020860152611419565b6114058185611d6d565b93508161141181611e0d565b9250506113b1565b600191505b611430856020015186600001516118d3565b60ff168260ff161161147f578561144a8562015180611d6d565b111561145e5760ff8216604086015261147f565b61146b6201518085611d6d565b93508161147781611e0d565b92505061141e565b61148886611999565b60ff166060860152611499866119bd565b60ff1660808601526114aa866119cb565b60ff1660a08601526114bb866119d8565b60ff1660c08601525092949350505050565b6114fa60405180608001604052806000151581526020016000815260200160008152602001600081525090565b6001600160a01b0383811660008181526008602090815260408083208784528252808320815160608101835281548152600180830154948201949094526002909101548183015291549051636053854d60e01b815260048101949094526024840187905290939192911690636053854d9060440160006040518083038186803b15801561158657600080fd5b505afa15801561159a573d6000803e3d6000fd5b505050506040513d6000823e601f3d908101601f191682016040526115c29190810190611b25565b516020830151909150600090819081905b84518110156116eb5760008582815181106115fe57634e487b7160e01b600052603260045260246000fd5b60200260200101519050600081604001516000146116285761162382604001516109f2565b611631565b611631426109f2565b9050600061164283600001516109f2565b61164d906001611d6d565b90505b818110156116ce576001600160a01b038c16600090815260076020908152604080832084845282529182902082518084019093528054835260010154908201819052156116b457602081015181516116a79161178d565b6116b19089611d6d565b97505b5060408901819052806116c681611df2565b915050611650565b5082945060019350505080806116e390611df2565b9150506115d3565b50604051806080016040528082151581526020018660400151815260200184815260200183600161171c9190611d6d565b905298975050505050505050565b600080546001600160a01b038381166001600160a01b0319831681178455604051919092169283917f8be0079c531659141344cd1fd0a4f28419497f9722a3daafe3b4186f6b6457e09190a35050565b60006117868284611ddb565b9392505050565b60006117868284611d85565b60008080806117ac6301e1338086611d85565b6117b8906107b2611d6d565b91506117c56107b261188e565b6117d28361ffff1661188e565b6117dc9190611ddb565b90506117ec816301e28500611d99565b6117f69084611d6d565b9250806118056107b284611db8565b61ffff166118139190611ddb565b611821906301e13380611d99565b61182b9084611d6d565b92505b8483111561188657611849611844600184611db8565b6119f4565b156118635761185c6301e2850084611ddb565b9250611874565b6118716301e1338084611ddb565b92505b61187f600183611db8565b915061182e565b509392505050565b600061189b600183611ddb565b91506118a961019083611d85565b6118b4606484611d85565b6118bf600485611d85565b6118c99190611ddb565b6102f09190611d6d565b60008260ff16600114806118ea57508260ff166003145b806118f857508260ff166005145b8061190657508260ff166007145b8061191457508260ff166008145b8061192257508260ff16600a145b8061193057508260ff16600c145b1561193d5750601f6102f0565b8260ff166004148061195257508260ff166006145b8061196057508260ff166009145b8061196e57508260ff16600b145b1561197b5750601e6102f0565b611984826119f4565b156119915750601d6102f0565b50601c6102f0565b60006018603c6119a98185611d85565b6119b39190611d85565b6102f09190611e4e565b6000603c6119b38184611d85565b60006102f0603c83611e4e565b600060076119e96201518084611d85565b6119b3906004611d6d565b6000611a01600483611e2d565b61ffff1615611a12575060006105b6565b611a1d606483611e2d565b61ffff1615611a2e575060016105b6565b611a3a61019083611e2d565b61ffff1615611a4b575060006105b6565b506001919050565b805180151581146105b657600080fd5b803560ff811681146105b657600080fd5b600060208284031215611a85578081fd5b813561178681611ea4565b600060208284031215611aa1578081fd5b815161178681611ea4565b600060208284031215611abd578081fd5b61178682611a53565b60008060408385031215611ad8578081fd5b8235611ae381611ea4565b946020939093013593505050565b600080600060608486031215611b05578081fd5b8335611b1081611ea4565b95602085013595506040909401359392505050565b60006020808385031215611b37578182fd5b825167ffffffffffffffff80821115611b4e578384fd5b81850191506060808388031215611b63578485fd5b611b6c81611d3c565b835183811115611b7a578687fd5b8401601f81018913611b8a578687fd5b805184811115611b9c57611b9c611e8e565b611ba98788830201611d3c565b8181528781019550828801858302840189018c1015611bc657898afd5b8993505b82841015611c135785818d031215611be057898afd5b611be986611d3c565b81518152898201518a82015260408083015190820152875295880195600193909301928501611bca565b50835250508385015185820152611c2c60408501611a53565b6040820152979650505050505050565b600060e08284031215611c4d578081fd5b611c5760e0611d3c565b823561ffff81168114611c68578283fd5b8152611c7660208401611a63565b6020820152611c8760408401611a63565b6040820152611c9860608401611a63565b6060820152611ca960808401611a63565b6080820152611cba60a08401611a63565b60a0820152611ccb60c08401611a63565b60c08201529392505050565b600060208284031215611ce8578081fd5b5035919050565b600060208284031215611d00578081fd5b5051919050565b6020808252818101527f4f776e61626c653a2063616c6c6572206973206e6f7420746865206f776e6572604082015260600190565b604051601f8201601f1916810167ffffffffffffffff81118282101715611d6557611d65611e8e565b604052919050565b60008219821115611d8057611d80611e62565b500190565b600082611d9457611d94611e78565b500490565b6000816000190483118215151615611db357611db3611e62565b500290565b600061ffff83811690831681811015611dd357611dd3611e62565b039392505050565b600082821015611ded57611ded611e62565b500390565b6000600019821415611e0657611e06611e62565b5060010190565b600060ff821660ff811415611e2457611e24611e62565b60010192915050565b600061ffff80841680611e4257611e42611e78565b92169190910692915050565b600082611e5d57611e5d611e78565b500690565b634e487b7160e01b600052601160045260246000fd5b634e487b7160e01b600052601260045260246000fd5b634e487b7160e01b600052604160045260246000fd5b6001600160a01b03811681146112e257600080fdfea26469706673582212204ab0deeb1eb79edc7d9f63db1727544c819b321e48060e15f75abe5fe74cc43e64736f6c63430008020033",
    "sourcePath": "/home/lukas/Solidity/DefiMinersClub/contracts/nft/staking/yield/YieldStorage.sol",
    "compiler": {
        "name": "solc",
        "version": "0.8.2+commit.661d1103"
    },
    "functionHashes": {
        "addYield(address,uint256,uint256)": "532f5968",
        "calculatePeriodIdentifier((uint16,uint8,uint8,uint8,uint8,uint8,uint8))": "37410d6b",
        "calculatePeriodIdentifier(uint256)": "83a09b30",
        "cashout(address,uint256)": "b7b172b3",
        "getBlockTime()": "87ceff09",
        "getClaimableLoot(address,uint256)": "059ed66d",
        "getPayoutToken()": "25cd3598",
        "getPeriodTime()": "16842334",
        "getStakedNFTs(address)": "6f70d212",
        "getStakedNFTs(address,uint256)": "50a029f9",
        "getStaker()": "72b45a55",
        "getStartTime()": "c828371e",
        "onStake(address,uint256)": "8c087b1c",
        "onUnStake(address,uint256)": "095d122f",
        "owner()": "8da5cb5b",
        "renounceOwnership()": "715018a6",
        "setPayoutToken(address)": "f02ae48f",
        "setStaker(address)": "a29a43bb",
        "transferOwnership(address)": "f2fde38b"
    },
    "gasEstimates": {
        "creation": {
            "codeDepositCost": "1583800",
            "executionCost": "infinite",
            "totalCost": "infinite"
        },
        "external": {
            "addYield(address,uint256,uint256)": "infinite",
            "calculatePeriodIdentifier((uint16,uint8,uint8,uint8,uint8,uint8,uint8))": "infinite",
            "calculatePeriodIdentifier(uint256)": "infinite",
            "cashout(address,uint256)": "infinite",
            "getBlockTime()": "247",
            "getClaimableLoot(address,uint256)": "infinite",
            "getPayoutToken()": "1110",
            "getPeriodTime()": "1049",
            "getStakedNFTs(address)": "infinite",
            "getStakedNFTs(address,uint256)": "infinite",
            "getStaker()": "1054",
            "getStartTime()": "1047",
            "onStake(address,uint256)": "infinite",
            "onUnStake(address,uint256)": "infinite",
            "owner()": "1142",
            "renounceOwnership()": "23525",
            "setPayoutToken(address)": "22093",
            "setStaker(address)": "22027",
            "transferOwnership(address)": "infinite"
        },
        "internal": {
            "calculatePayoutData(contract DefiMinerNFT,uint256)": "infinite",
            "getTimestampSundayLastWeek(uint256,uint256)": "infinite"
        }
    }
}